{
  "_format": "hh-sol-artifact-1",
  "contractName": "ATM",
  "sourceName": "contracts/ATM.sol",
  "abi": [
    {
      "inputs": [],
      "stateMutability": "nonpayable",
      "type": "constructor"
    },
    {
      "anonymous": false,
      "inputs": [
        {
          "indexed": true,
          "internalType": "address",
          "name": "account",
          "type": "address"
        },
        {
          "indexed": false,
          "internalType": "uint256",
          "name": "amount",
          "type": "uint256"
        }
      ],
      "name": "BalanceBurned",
      "type": "event"
    },
    {
      "anonymous": false,
      "inputs": [
        {
          "indexed": true,
          "internalType": "address",
          "name": "account",
          "type": "address"
        },
        {
          "indexed": false,
          "internalType": "uint256",
          "name": "amount",
          "type": "uint256"
        }
      ],
      "name": "BalanceDeposited",
      "type": "event"
    },
    {
      "anonymous": false,
      "inputs": [
        {
          "indexed": true,
          "internalType": "address",
          "name": "account",
          "type": "address"
        },
        {
          "indexed": false,
          "internalType": "uint256",
          "name": "amount",
          "type": "uint256"
        }
      ],
      "name": "BalanceWithdrawn",
      "type": "event"
    },
    {
      "inputs": [
        {
          "internalType": "uint256",
          "name": "amount",
          "type": "uint256"
        }
      ],
      "name": "burnBalance",
      "outputs": [],
      "stateMutability": "nonpayable",
      "type": "function"
    },
    {
      "inputs": [],
      "name": "depositBalance",
      "outputs": [],
      "stateMutability": "payable",
      "type": "function"
    },
    {
      "inputs": [],
      "name": "getContractBalance",
      "outputs": [
        {
          "internalType": "uint256",
          "name": "",
          "type": "uint256"
        }
      ],
      "stateMutability": "view",
      "type": "function"
    },
    {
      "inputs": [],
      "name": "showBalance",
      "outputs": [
        {
          "internalType": "uint256",
          "name": "",
          "type": "uint256"
        }
      ],
      "stateMutability": "view",
      "type": "function"
    },
    {
      "inputs": [
        {
          "internalType": "uint256",
          "name": "amount",
          "type": "uint256"
        }
      ],
      "name": "withdrawBalance",
      "outputs": [],
      "stateMutability": "nonpayable",
      "type": "function"
    }
  ],
  "bytecode": "0x608060405234801561001057600080fd5b50336000806101000a81548173ffffffffffffffffffffffffffffffffffffffff021916908373ffffffffffffffffffffffffffffffffffffffff16021790555061094f806100606000396000f3fe60806040526004361061004a5760003560e01c806361bc1a491461004f5780636f9fb98a14610059578063701dbcf91461008457806381b2d07b146100ad578063da76d5cd146100d8575b600080fd5b610057610101565b005b34801561006557600080fd5b5061006e6101ea565b60405161007b919061068e565b60405180910390f35b34801561009057600080fd5b506100ab60048036038101906100a691906106da565b610281565b005b3480156100b957600080fd5b506100c261047b565b6040516100cf919061068e565b60405180910390f35b3480156100e457600080fd5b506100ff60048036038101906100fa91906106da565b6104c2565b005b60003411610144576040517f08c379a000000000000000000000000000000000000000000000000000000000815260040161013b90610764565b60405180910390fd5b34600160003373ffffffffffffffffffffffffffffffffffffffff1673ffffffffffffffffffffffffffffffffffffffff168152602001908152602001600020600082825461019391906107b3565b925050819055503373ffffffffffffffffffffffffffffffffffffffff167f35127daa9a364433b8c0088167a66055c055f07c5aca9b104d84c51bd7a367de346040516101e0919061068e565b60405180910390a2565b60008060009054906101000a900473ffffffffffffffffffffffffffffffffffffffff1673ffffffffffffffffffffffffffffffffffffffff163373ffffffffffffffffffffffffffffffffffffffff161461027b576040517f08c379a000000000000000000000000000000000000000000000000000000000815260040161027290610859565b60405180910390fd5b47905090565b60008054906101000a900473ffffffffffffffffffffffffffffffffffffffff1673ffffffffffffffffffffffffffffffffffffffff163373ffffffffffffffffffffffffffffffffffffffff161461030f576040517f08c379a000000000000000000000000000000000000000000000000000000000815260040161030690610859565b60405180910390fd5b60008111610352576040517f08c379a000000000000000000000000000000000000000000000000000000000815260040161034990610764565b60405180910390fd5b80600160003373ffffffffffffffffffffffffffffffffffffffff1673ffffffffffffffffffffffffffffffffffffffff1681526020019081526020016000205410156103d4576040517f08c379a00000000000000000000000000000000000000000000000000000000081526004016103cb906108c5565b60405180910390fd5b80600160003373ffffffffffffffffffffffffffffffffffffffff1673ffffffffffffffffffffffffffffffffffffffff168152602001908152602001600020600082825461042391906108e5565b925050819055503373ffffffffffffffffffffffffffffffffffffffff167fa80be5e98de7c87f159839aeb8983aaf06036d0094eea13ad2e8e1cd4fe231e782604051610470919061068e565b60405180910390a250565b6000600160003373ffffffffffffffffffffffffffffffffffffffff1673ffffffffffffffffffffffffffffffffffffffff16815260200190815260200160002054905090565b60008111610505576040517f08c379a00000000000000000000000000000000000000000000000000000000081526004016104fc90610764565b60405180910390fd5b80600160003373ffffffffffffffffffffffffffffffffffffffff1673ffffffffffffffffffffffffffffffffffffffff168152602001908152602001600020541015610587576040517f08c379a000000000000000000000000000000000000000000000000000000000815260040161057e906108c5565b60405180910390fd5b80600160003373ffffffffffffffffffffffffffffffffffffffff1673ffffffffffffffffffffffffffffffffffffffff16815260200190815260200160002060008282546105d691906108e5565b925050819055503373ffffffffffffffffffffffffffffffffffffffff166108fc829081150290604051600060405180830381858888f19350505050158015610623573d6000803e3d6000fd5b503373ffffffffffffffffffffffffffffffffffffffff167fddc398b321237a8d40ac914388309c2f52a08c134e4dc4ce61e32f57cb7d80f18260405161066a919061068e565b60405180910390a250565b6000819050919050565b61068881610675565b82525050565b60006020820190506106a3600083018461067f565b92915050565b600080fd5b6106b781610675565b81146106c257600080fd5b50565b6000813590506106d4816106ae565b92915050565b6000602082840312156106f0576106ef6106a9565b5b60006106fe848285016106c5565b91505092915050565b600082825260208201905092915050565b7f416d6f756e74206d7573742062652067726561746572207468616e2030000000600082015250565b600061074e601d83610707565b915061075982610718565b602082019050919050565b6000602082019050818103600083015261077d81610741565b9050919050565b7f4e487b7100000000000000000000000000000000000000000000000000000000600052601160045260246000fd5b60006107be82610675565b91506107c983610675565b92508282019050808211156107e1576107e0610784565b5b92915050565b7f4f6e6c792074686520636f6e7472616374206f776e65722063616e2063616c6c60008201527f20746869732066756e6374696f6e000000000000000000000000000000000000602082015250565b6000610843602e83610707565b915061084e826107e7565b604082019050919050565b6000602082019050818103600083015261087281610836565b9050919050565b7f496e73756666696369656e742062616c616e6365000000000000000000000000600082015250565b60006108af601483610707565b91506108ba82610879565b602082019050919050565b600060208201905081810360008301526108de816108a2565b9050919050565b60006108f082610675565b91506108fb83610675565b925082820390508181111561091357610912610784565b5b9291505056fea264697066735822122030d4b90bfe17ca0e48961316c86de973f67a226e4caeb6dcadc1ca37dce637d264736f6c63430008110033",
  "linkReferences": {},
  "deployedLinkReferences": {}
}